{
  "_format": "hh-sol-artifact-1",
  "contractName": "ProductRegistry",
  "sourceName": "contracts/ProductRegistry.sol",
  "abi": [
    {
      "inputs": [],
      "stateMutability": "nonpayable",
      "type": "constructor"
    },
    {
      "anonymous": false,
      "inputs": [
        {
          "indexed": false,
          "internalType": "string",
          "name": "serialNumber",
          "type": "string"
        },
        {
          "indexed": false,
          "internalType": "string",
          "name": "productName",
          "type": "string"
        },
        {
          "indexed": false,
          "internalType": "uint256",
          "name": "manufacturerId",
          "type": "uint256"
        },
        {
          "indexed": false,
          "internalType": "string",
          "name": "productBrand",
          "type": "string"
        },
        {
          "indexed": false,
          "internalType": "string",
          "name": "productDescription",
          "type": "string"
        }
      ],
      "name": "ProductAdded",
      "type": "event"
    },
    {
      "inputs": [
        {
          "internalType": "string",
          "name": "_serialNumber",
          "type": "string"
        },
        {
          "internalType": "uint256",
          "name": "_manufacturerId",
          "type": "uint256"
        },
        {
          "internalType": "string",
          "name": "_productName",
          "type": "string"
        },
        {
          "internalType": "string",
          "name": "_productBrand",
          "type": "string"
        },
        {
          "internalType": "string",
          "name": "_productDescription",
          "type": "string"
        }
      ],
      "name": "addProduct",
      "outputs": [],
      "stateMutability": "nonpayable",
      "type": "function"
    },
    {
      "inputs": [],
      "name": "owner",
      "outputs": [
        {
          "internalType": "address",
          "name": "",
          "type": "address"
        }
      ],
      "stateMutability": "view",
      "type": "function"
    },
    {
      "inputs": [
        {
          "internalType": "string",
          "name": "_serialNumber",
          "type": "string"
        }
      ],
      "name": "verifyProduct",
      "outputs": [
        {
          "internalType": "uint256",
          "name": "manufacturerId",
          "type": "uint256"
        },
        {
          "internalType": "string",
          "name": "productName",
          "type": "string"
        },
        {
          "internalType": "string",
          "name": "productBrand",
          "type": "string"
        },
        {
          "internalType": "string",
          "name": "productDescription",
          "type": "string"
        },
        {
          "internalType": "bool",
          "name": "isValid",
          "type": "bool"
        }
      ],
      "stateMutability": "view",
      "type": "function"
    }
  ],
  "bytecode": "0x6080604052348015600f57600080fd5b50336000806101000a81548173ffffffffffffffffffffffffffffffffffffffff021916908373ffffffffffffffffffffffffffffffffffffffff160217905550610fe68061005f6000396000f3fe608060405234801561001057600080fd5b50600436106100415760003560e01c806302879f9c146100465780638da5cb5b1461006257806392efc45314610080575b600080fd5b610060600480360381019061005b91906107df565b6100b4565b005b61006a61030e565b604051610077919061090b565b60405180910390f35b61009a60048036038101906100959190610926565b610332565b6040516100ab959493929190610a18565b60405180910390f35b60008054906101000a900473ffffffffffffffffffffffffffffffffffffffff1673ffffffffffffffffffffffffffffffffffffffff163373ffffffffffffffffffffffffffffffffffffffff1614610142576040517f08c379a000000000000000000000000000000000000000000000000000000000815260040161013990610af2565b60405180910390fd5b6000855111610186576040517f08c379a000000000000000000000000000000000000000000000000000000000815260040161017d90610b5e565b60405180910390fd5b6001856040516101969190610bba565b908152602001604051809103902060050160009054906101000a900460ff16156101f5576040517f08c379a00000000000000000000000000000000000000000000000000000000081526004016101ec90610c43565b60405180910390fd5b6040518060c00160405280868152602001858152602001848152602001838152602001828152602001600115158152506001866040516102359190610bba565b908152602001604051809103902060008201518160000190816102589190610e6f565b506020820151816001015560408201518160020190816102789190610e6f565b50606082015181600301908161028e9190610e6f565b5060808201518160040190816102a49190610e6f565b5060a08201518160050160006101000a81548160ff0219169083151502179055509050507fe0ebb695a7754147a5dde613f2ed3dc7a2a47f2fa6bc93f78455d70a1b36f95f85848685856040516102ff959493929190610f41565b60405180910390a15050505050565b60008054906101000a900473ffffffffffffffffffffffffffffffffffffffff1681565b6000606080606060008060018760405161034c9190610bba565b90815260200160405180910390206040518060c001604052908160008201805461037590610c92565b80601f01602080910402602001604051908101604052809291908181526020018280546103a190610c92565b80156103ee5780601f106103c3576101008083540402835291602001916103ee565b820191906000526020600020905b8154815290600101906020018083116103d157829003601f168201915b505050505081526020016001820154815260200160028201805461041190610c92565b80601f016020809104026020016040519081016040528092919081815260200182805461043d90610c92565b801561048a5780601f1061045f5761010080835404028352916020019161048a565b820191906000526020600020905b81548152906001019060200180831161046d57829003601f168201915b505050505081526020016003820180546104a390610c92565b80601f01602080910402602001604051908101604052809291908181526020018280546104cf90610c92565b801561051c5780601f106104f15761010080835404028352916020019161051c565b820191906000526020600020905b8154815290600101906020018083116104ff57829003601f168201915b5050505050815260200160048201805461053590610c92565b80601f016020809104026020016040519081016040528092919081815260200182805461056190610c92565b80156105ae5780601f10610583576101008083540402835291602001916105ae565b820191906000526020600020905b81548152906001019060200180831161059157829003601f168201915b505050505081526020016005820160009054906101000a900460ff16151515158152505090508060a001511561060457806020015181604001518260600151836080015160019550955095509550955050610646565b60008060405180602001604052806000815250906040518060200160405280600081525090604051806020016040528060008152509095509550955095509550505b91939590929450565b6000604051905090565b600080fd5b600080fd5b600080fd5b600080fd5b6000601f19601f8301169050919050565b7f4e487b7100000000000000000000000000000000000000000000000000000000600052604160045260246000fd5b6106b68261066d565b810181811067ffffffffffffffff821117156106d5576106d461067e565b5b80604052505050565b60006106e861064f565b90506106f482826106ad565b919050565b600067ffffffffffffffff8211156107145761071361067e565b5b61071d8261066d565b9050602081019050919050565b82818337600083830152505050565b600061074c610747846106f9565b6106de565b90508281526020810184848401111561076857610767610668565b5b61077384828561072a565b509392505050565b600082601f8301126107905761078f610663565b5b81356107a0848260208601610739565b91505092915050565b6000819050919050565b6107bc816107a9565b81146107c757600080fd5b50565b6000813590506107d9816107b3565b92915050565b600080600080600060a086880312156107fb576107fa610659565b5b600086013567ffffffffffffffff8111156108195761081861065e565b5b6108258882890161077b565b9550506020610836888289016107ca565b945050604086013567ffffffffffffffff8111156108575761085661065e565b5b6108638882890161077b565b935050606086013567ffffffffffffffff8111156108845761088361065e565b5b6108908882890161077b565b925050608086013567ffffffffffffffff8111156108b1576108b061065e565b5b6108bd8882890161077b565b9150509295509295909350565b600073ffffffffffffffffffffffffffffffffffffffff82169050919050565b60006108f5826108ca565b9050919050565b610905816108ea565b82525050565b600060208201905061092060008301846108fc565b92915050565b60006020828403121561093c5761093b610659565b5b600082013567ffffffffffffffff81111561095a5761095961065e565b5b6109668482850161077b565b91505092915050565b610978816107a9565b82525050565b600081519050919050565b600082825260208201905092915050565b60005b838110156109b857808201518184015260208101905061099d565b60008484015250505050565b60006109cf8261097e565b6109d98185610989565b93506109e981856020860161099a565b6109f28161066d565b840191505092915050565b60008115159050919050565b610a12816109fd565b82525050565b600060a082019050610a2d600083018861096f565b8181036020830152610a3f81876109c4565b90508181036040830152610a5381866109c4565b90508181036060830152610a6781856109c4565b9050610a766080830184610a09565b9695505050505050565b7f4f6e6c792074686520636f6e7472616374206f776e65722063616e207065726660008201527f6f726d207468697320616374696f6e2e00000000000000000000000000000000602082015250565b6000610adc603083610989565b9150610ae782610a80565b604082019050919050565b60006020820190508181036000830152610b0b81610acf565b9050919050565b7f53657269616c206e756d6265722063616e6e6f7420626520656d7074792e0000600082015250565b6000610b48601e83610989565b9150610b5382610b12565b602082019050919050565b60006020820190508181036000830152610b7781610b3b565b9050919050565b600081905092915050565b6000610b948261097e565b610b9e8185610b7e565b9350610bae81856020860161099a565b80840191505092915050565b6000610bc68284610b89565b915081905092915050565b7f50726f64756374207769746820746869732073657269616c206e756d6265722060008201527f616c7265616479206578697374732e0000000000000000000000000000000000602082015250565b6000610c2d602f83610989565b9150610c3882610bd1565b604082019050919050565b60006020820190508181036000830152610c5c81610c20565b9050919050565b7f4e487b7100000000000000000000000000000000000000000000000000000000600052602260045260246000fd5b60006002820490506001821680610caa57607f821691505b602082108103610cbd57610cbc610c63565b5b50919050565b60008190508160005260206000209050919050565b60006020601f8301049050919050565b600082821b905092915050565b600060088302610d257fffffffffffffffffffffffffffffffffffffffffffffffffffffffffffffffff82610ce8565b610d2f8683610ce8565b95508019841693508086168417925050509392505050565b6000819050919050565b6000610d6c610d67610d62846107a9565b610d47565b6107a9565b9050919050565b6000819050919050565b610d8683610d51565b610d9a610d9282610d73565b848454610cf5565b825550505050565b600090565b610daf610da2565b610dba818484610d7d565b505050565b5b81811015610dde57610dd3600082610da7565b600181019050610dc0565b5050565b601f821115610e2357610df481610cc3565b610dfd84610cd8565b81016020851015610e0c578190505b610e20610e1885610cd8565b830182610dbf565b50505b505050565b600082821c905092915050565b6000610e4660001984600802610e28565b1980831691505092915050565b6000610e5f8383610e35565b9150826002028217905092915050565b610e788261097e565b67ffffffffffffffff811115610e9157610e9061067e565b5b610e9b8254610c92565b610ea6828285610de2565b600060209050601f831160018114610ed95760008415610ec7578287015190505b610ed18582610e53565b865550610f39565b601f198416610ee786610cc3565b60005b82811015610f0f57848901518255600182019150602085019450602081019050610eea565b86831015610f2c5784890151610f28601f891682610e35565b8355505b6001600288020188555050505b505050505050565b600060a0820190508181036000830152610f5b81886109c4565b90508181036020830152610f6f81876109c4565b9050610f7e604083018661096f565b8181036060830152610f9081856109c4565b90508181036080830152610fa481846109c4565b9050969550505050505056fea2646970667358221220b29036f0a6c965f19d56b4df5e156e48269a291a9c21826a2419186bba142c6c64736f6c634300081e0033",
  "linkReferences": {},
  "deployedLinkReferences": {}
}